:100000000C944B000C9468000C9468000C946800ED
:100010000C9468000C9468000C9468000C946800C0
:100020000C9468000C9468000C9468000C946800B0
:100030000C9468000C9468000C9468000C946800A0
:100040000C9468000C9468000C94AE000C9468004A
:100050000C9468000C9468000C9468000C94680080
:100060000C9468000C946800084AD73B3BCE016EA4
:1000700084BCBFFDC12F3D6C74319ABD56833DDAFF
:100080003D00C77F11BED9E4BB4C3E916BAAAABE0E
:10009000000000803F0011241FBECFEFD4E0DEBF80
:1000A000CDBF11E0A0E0B1E0E2EBF5E102C00590C8
:1000B0000D92AC32B107D9F721E0ACE2B1E001C05A
:1000C0001D92AF32B207E1F70E9439040C94D70AAF
:1000D0000C940000CF92DF92EF92FF926B017C01B3
:1000E00020E030E0A9010E947D0718163CF48091C1
:1000F0002E01811129C00E94510118C020E030E07A
:10010000A901C701B6010E94FB0587FF06C08091C7
:100110002E01813011F40E94590120E030E0A90144
:10012000C701B6010E947D0718161CF4C701B6016D
:1001300003C0C701B60190580E947506862FFF9034
:10014000EF90DF90CF90089520E030E0A901C70143
:10015000B6010E94FB0587FFE9CFD9CF1F920F920E
:100160000FB60F9211248F938091C600813309F04E
:1001700080E3809300018F910F900FBE0F901F902E
:1001800018951092C5008CE08093C400E0ECF0E07C
:1001900080818260808388E98093C10086E08093BB
:1001A000C200789408959091C00095FFFCCF809391
:1001B000C60008958091C00087FFFCCF8091C600E3
:1001C00008956F927F928F929F92AF92BF92CF923B
:1001D000DF92EF92FF920F931F93CF93DF93CDB7F0
:1001E000DEB7C058D1090FB6F894DEBF0FBECDBF41
:1001F000CE0101967C015E0193E0A90EB11C4E0177
:10020000E4E08E0E911C00E010E067018DE0782E96
:100210009AE0692E0E94DA008D3099F00F5F1F4F2F
:100220000E37110571F0F70181937F01F601E00FA0
:10023000F11F7082F50161925F01F40111924F018B
:10024000E9CF8DE00E94D3008AE00E94D300C6016E
:10025000C058DF4F0FB6F894DEBF0FBECDBFDF91A1
:10026000CF911F910F91FF90EF90DF90CF90BF90B3
:10027000AF909F908F907F906F9008950F931F93F2
:10028000CF938C01C0E0F801EC0FF11D8081882331
:1002900021F00E94D300CF5FF6CFCF911F910F9135
:1002A000089580912E01811103C081E080932E0179
:1002B000089580912E01813011F410922E0108953D
:1002C00087B1836087B98AB180668AB917BC18BCC8
:1002D00084B5806A84BD84B5896084BD85B5846039
:1002E00085BD0C94590190912E01911103C018BC49
:1002F00087BD089517BC88BD089580912E01811196
:1003000003C00E94510102C00E94590180E00C9478
:100310007301CF92DF92EF92FF920F931F93FC0134
:10032000108E118E128E138E4083518362837383DD
:100330000483158326833783C086D186E286F386BD
:10034000148A158A168A178A1486158616861786C1
:10035000108A118A128A138A1F910F91FF90EF90D1
:10036000DF90CF900895FC01108E118E128E138EA7
:10037000148A158A168A178A148615861686178691
:10038000108A118A128A138A08952F923F924F92EF
:100390005F926F927F928F929F92AF92BF92CF9215
:1003A000DF92EF92FF920F931F93CF93DF93CDB71E
:1003B000DEB72A970FB6F894DEBF0FBECDBF9A8383
:1003C00089834F83588769877A87ED82FE828B8283
:1003D0009C823A2C2B2C4F8C58A069A07AA0BBA0F1
:1003E000ACA09DA08EA0A90198016F817885898518
:1003F0009A850E948A07E981FA81208D318D428D8C
:10040000538D0E941D057B018C012B2D3A2D492D0A
:10041000582D0E947D07181624F4EB2CFA2C092D78
:10042000182D9201A301B701C8010E94FB0587FFA7
:1004300002C072018301C701D801E981FA81808F6E
:10044000918FA28FB38F248535854685578560812E
:100450007181828193810E941D052B013C0120E066
:1004600030E0A9010E94FB0587FF03C0412C512CFD
:100470003201E981FA812089318942895389648175
:100480007581868197810E941D054B015C0120E0EA
:1004900030E0A9010E94FB0587FF03C0812C912C4D
:1004A0005401A30192016F81788589859A850E9404
:1004B0008A072B013C01A5019401B701C8010E94E4
:1004C0008A079B01AC01C301B2010E941D052FA147
:1004D00038A549A55AA50E941D057B018C012B81D9
:1004E0003C81432D522D0E947D07181624F0EB828B
:1004F000FC82302E212E96014D815E816B817C81A4
:10050000832D922D0E94FB0587FD04C0CB80DC80EB
:100510003D822E82B6018D819E812A960FB6F89477
:10052000DEBF0FBECDBFDF91CF911F910F91FF9026
:10053000EF90DF90CF90BF90AF909F908F907F9083
:100540006F905F904F903F902F9008952F923F9221
:100550004F925F926F927F928F929F92AF92BF92D3
:10056000CF92DF92EF92FF920F931F93CF93DF937F
:10057000CDB7DEB72C970FB6F894DEBF0FBECDBF58
:1005800098878F832A013B01C901B801C986DA86A1
:10059000EB86FC86382C292CA982BA8229A12B83D0
:1005A000EAA1EC83FBA1FD832CA12E83FDA0EEA08C
:1005B000DFA0C8A4B9A4AAA49BA48CA4EF81F88549
:1005C00020853185428553850E948A079B01AC01B5
:1005D0006DA57EA58FA598A90E941C059F938F935A
:1005E0007F936F938F929F92AF92BF92CF92DF9241
:1005F000EF92FF928B809C80AD80BE80C32CD22C6A
:10060000E980FA8009851A852B853C85B301A20112
:100610008F8198850E94C5012B013C010FB6F8948B
:10062000DEBF0FBECDBF2B813C814D815E810E941C
:100630007D07181624F44B805C806D807E80232D0E
:10064000322D49815A81B201C3010E94FB0587FF07
:1006500004C0432C522C69807A80B201C3012C96CD
:100660000FB6F894DEBF0FBECDBFDF91CF911F91C3
:100670000F91FF90EF90DF90CF90BF90AF909F9041
:100680008F907F906F905F904F903F902F90089544
:100690008091BC0087FFFCCF089580E28093B80072
:1006A000ECEBF0E08081846080830895CF92DF924C
:1006B000EF92FF921F93CF93DF9300D0CDB7DEB7B9
:1006C0009CEBC92ED12C94EAF60190836A8389832E
:1006D0000E9448032BEBE22EF12C90E5F70190836A
:1006E00014E8F60110830E9448038981F701808392
:1006F000F60110830E9448036A81F7016083F601C6
:1007000010830E94480384E9F60180830F900F90C4
:10071000DF91CF911F91FF90EF90DF90CF900895E0
:10072000CF92DF92EF92FF920F931F93CF93DF93BD
:100730001F92CDB7DEB79CEBC92ED12C24EAE22E56
:10074000F601E08289830E9448030BEB10E090E5FC
:10075000F801908334E8F32EF601F0820E944803FA
:100760008981F8018083F601F0820E944803F60136
:10077000E0820E94480381E5F8018083F601F0825F
:100780000E94480384ECF60180830E944803F8012C
:100790008081F601F08289830E944803F8019081EC
:1007A00094E9F601908389810F90DF91CF911F9199
:1007B0000F91FF90EF90DF90CF9008950F931F93CC
:1007C000CF93DF93CDB7DEB7C058D1090FB6F894F9
:1007D000DEBF0FBECDBF5F934F937F936F939F9309
:1007E0008F9381E091E09F938F938E010F5F1F4F56
:1007F0001F930F930E94FF07C8010E943E010FB68E
:10080000F894DEBF0FBECDBFC058DF4F0FB6F894CF
:10081000DEBF0FBECDBFDF91CF911F910F91089525
:100820001F93CF93DF9300D000D0CDB7DEB7182F42
:10083000062E000C770B880B990B0E94A6069B01D5
:10084000AC01612F110F770B880B990B29833A8329
:100850004B835C830E94A60629813A814B815C818F
:100860000F900F900F900F90DF91CF911F910C94EC
:100870009C05CF93DF93CDB7DEB76C970FB6F89496
:10088000DEBF0FBECDBFC12CD12C76010AE919E91C
:1008900029E93FE340E050E068E473E4CE010196CB
:1008A0000E9489010E944D030E94C1000E946001C4
:1008B00060E08EE30E94560368E08DE30E945603D9
:1008C000B12CA12C43E4542E5CE7752E63EC462E2C
:1008D00080910001813309F0ABC08CE10E9490034C
:1008E000182F8DE10E949003212F30E0382B309398
:1008F0002D0120932C0188E10E949003682E009125
:100900002C0110912D01C80182509F4F8D3F9140C5
:1009100010F00B2D1A2D10932D0100932C01C701FF
:10092000B6010E946E0620912E0130E0AB01B901A4
:10093000C8010E94DE0360912C0170912D01072EE9
:10094000000C880B990B0E94A60620E030E040E8DE
:100950005DE30E948A079B01AC0160E070E0CB017F
:100960000E941C05AB01BC011F921F921F921F9297
:100970005F927F921F921F924F927F921F921F92BF
:100980005F927F921F921F92812C912C2CE7A22EB6
:1009900023ECB22EC12CD12C30E8E32E3FE3F32E12
:1009A00000E010E09801CE0101960E94A6026B01C2
:1009B0007C01662D660C770B880B990B0E94A606AE
:1009C00020E030E0A9010E948A079B01AC01C70129
:1009D000B6010E941D056B017C010FB6F894DEBFC5
:1009E0000FBECDBF20E030E04CE753E40E947D070E
:1009F00018167CF0A5019401C701B6010E94FB0501
:100A000087FF0DC0C12CD12C8CE7E82E83ECF82E8B
:100A100006C0C12CD12C9CE7E92E93E4F92EB090AE
:100A20002C01A0902D01C701B6010E946A0001C0EF
:100A30008EE10E9473014CCF5058BB27AA270E9419
:100A400034050C9443070E94350738F00E943C0798
:100A500020F039F49F3F19F426F40C940B070EF4A0
:100A6000E095E7FB0C940507E92F0E94540758F323
:100A7000BA17620773078407950720F079F4A6F583
:100A80000C9476070EF4E0950B2EBA2FA02D0B01D7
:100A9000B90190010C01CA01A0011124FF27591BC3
:100AA00099F0593F50F4503E68F11A16F040A22FC9
:100AB000232F342F4427585FF3CF4695379527953A
:100AC000A795F0405395C9F77EF41F16BA0B620B39
:100AD000730B840BBAF09150A1F0FF0FBB1F661F80
:100AE000771F881FC2F70EC0BA0F621F731F841FC3
:100AF00048F4879577956795B795F7959E3F08F0E9
:100B0000B0CF9395880F08F09927EE0F97958795AA
:100B100008950E94350760F080E891E009F49EEFA7
:100B20000E943C0728F040E851E071F45EEF0CC0F1
:100B30000C940B070C947607E92FE0780E94540779
:100B400040F3092E052AB1F326173707480759073E
:100B500038F00E2E07F8E02569F0E025E0640AC0C1
:100B6000EF6307F8009407FADB01B9019D01DC018E
:100B7000CA01AD01EF930E9413060E9443070E9431
:100B8000CC055F91552339F02BED3FE049E450FD52
:100B900049EC0C941D050895DF93DD27B92FBF772D
:100BA00040E85FE31616170648075B0718F4D92FCD
:100BB0000E9482079F938F937F936F930E94F70702
:100BC000E8E6F0E00E940E070E9443072F913F9154
:100BD0004F915F910E949D07DD2351F09058A2EA4A
:100BE0002AED3FE049EC5FE3D0785D270E943405B1
:100BF000DF910C9443070E94E10608F481E0089518
:100C00000E943C0758F00E94350740F029F45F3FEE
:100C100029F00C94050751110C9477070C940B07DD
:100C20000E94540768F39923B1F3552391F3951B60
:100C3000550BBB27AA2762177307840738F09F5FFD
:100C40005F4F220F331F441FAA1FA9F335D00E2E6A
:100C50003AF0E0E832D091505040E695001CCAF7D7
:100C60002BD0FE2F29D0660F771F881FBB1F26179A
:100C700037074807AB07B0E809F0BB0B802DBF0171
:100C8000FF2793585F4F3AF09E3F510578F00C9440
:100C900005070C9477075F3FE4F3983ED4F38695FD
:100CA00077956795B795F7959F5FC9F7880F911D61
:100CB0009695879597F90895E1E0660F771F881F4D
:100CC000BB1F621773078407BA0720F0621B730B00
:100CD000840BBA0BEE1F88F7E09508950E94750605
:100CE0006894B1110C94770708950E945C0788F00E
:100CF0009F5798F0B92F9927B751B0F0E1F0660FE0
:100D0000771F881F991F1AF0BA95C9F714C0B13020
:100D100091F00E947607B1E008950C947607672F52
:100D2000782F8827B85F39F0B93FCCF3869577954F
:100D30006795B395D9F73EF4909580957095619538
:100D40007F4F8F4F9F4F0895E89409C097FB3EF463
:100D500090958095709561957F4F8F4F9F4F992308
:100D6000A9F0F92F96E9BB279395F6958795779586
:100D70006795B795F111F8CFFAF4BB0F11F460FF46
:100D80001BC06F5F7F4F8F4F9F4F16C0882311F09E
:100D900096E911C0772321F09EE8872F762F05C0B2
:100DA000662371F096E8862F70E060E02AF09A954D
:100DB000660F771F881FDAF7880F9695879597F942
:100DC0000895990F0008550FAA0BE0E8FEEF1616DC
:100DD0001706E807F907C0F012161306E407F5072F
:100DE00098F0621B730B840B950B39F40A2661F0A3
:100DF000232B242B252B21F408950A2609F4A14046
:100E0000A6958FEF811D811D089597F99F6780E852
:100E100070E060E008959FEF80EC0895DF93CF933A
:100E20001F930F93FF92EF92DF927B018C016894E6
:100E300006C0DA2EEF010E949D07FE01E894A591FD
:100E40002591359145915591A6F3EF010E94340506
:100E5000FE019701A801DA9469F7DF90EF90FF9007
:100E60000F911F91CF91DF91089500240A941616D7
:100E7000170618060906089500240A941216130688
:100E8000140605060895092E0394000C11F4882316
:100E900052F0BB0F40F4BF2B11F460FF04C06F5F32
:100EA0007F4F8F4F9F4F089557FD9058440F551F08
:100EB00059F05F3F71F04795880F97FB991F61F0DC
:100EC0009F3F79F087950895121613061406551F53
:100ED000F2CF4695F1DF08C0161617061806991FBF
:100EE000F1CF86957105610508940895E894BB27B4
:100EF00066277727CB0197F908950E94E10608F449
:100F00008FEF08959B01AC0160E070E080E89FE303
:100F10000C94FB070E949D070C9443070E94350721
:100F200038F00E943C0720F0952311F00C9405073F
:100F30000C940B0711240C9477070E94540770F34C
:100F4000959FC1F3950F50E0551F629FF001729F6E
:100F5000BB27F00DB11D639FAA27F00DB11DAA1F7D
:100F6000649F6627B00DA11D661F829F2227B00DCA
:100F7000A11D621F739FB00DA11D621F839FA00D55
:100F8000611D221F749F3327A00D611D231F849FA5
:100F9000600D211D822F762F6A2F11249F575040FC
:100FA0009AF0F1F088234AF0EE0FFF1FBB1F661F77
:100FB000771F881F91505040A9F79E3F510580F040
:100FC0000C9405070C9477075F3FE4F3983ED4F345
:100FD000869577956795B795F795E7959F5FC1F7E4
:100FE000FE2B880F911D9695879597F908959B0183
:100FF000AC010C948A070E9410060C944307AEE0E3
:10100000B0E0E5E0F8E00C94AE0A0D891E8986E0B8
:101010008C831A8309838FEF9FE79E838D83AE01B4
:10102000475E5F4F6F89788DCE0101960E9422083E
:101030002F813885F801E20FF31F10822E96E4E02D
:101040000C94CA0AACE0B0E0E8E2F8E00C94A00A24
:101050007C016B018A01FC0117821682838181FF6A
:10106000BDC1CE0101964C01F7019381F60193FDBC
:10107000859193FF81916F01882309F4ABC185327B
:1010800039F493FD859193FF81916F01853229F4A5
:10109000B70190E00E940A0AE7CF512C312C20E0E2
:1010A0002032A0F48B3269F030F4803259F0833270
:1010B00069F420612CC08D3239F0803339F421601D
:1010C00026C02260246023C0286021C027FD27C0DD
:1010D00030ED380F3A3078F426FF06C0FAE05F9E14
:1010E000300D1124532E13C08AE0389E300D112488
:1010F000332E20620CC08E3221F426FD6BC1206499
:1011000006C08C3611F4206802C0883641F4F6011E
:1011100093FD859193FF81916F018111C1CF982F2C
:101120009F7D9554933028F40C5F1F4FFFE3F983A4
:101130000DC0833631F0833771F0833509F05BC021
:1011400022C0F801808189830E5F1F4F442443949D
:10115000512C540115C03801F2E06F0E711CF801DA
:10116000A080B18026FF03C0652D70E002C06FEF44
:101170007FEFC5012C870E94FF092C0183012C857C
:101180002F77222E17C03801F2E06F0E711CF80184
:10119000A080B18026FF03C0652D70E002C06FEF14
:1011A0007FEFC5012C870E94F4092C012C85206853
:1011B000222E830123FC1BC0832D90E04816590684
:1011C000B0F4B70180E290E00E940A0A3A94F4CFAA
:1011D000F50127FC859127FE81915F01B70190E021
:1011E0000E940A0A31103A94F1E04F1A5108411452
:1011F000510471F7E5C0843611F0893639F5F801EC
:1012000027FF07C060817181828193810C5F1F4F2E
:1012100008C060817181072E000C880B990B0E5F4E
:101220001F4F2F76722E97FF09C09095809570956D
:1012300061957F4F8F4F9F4F2068722E2AE030E0DC
:10124000A4010E94420AA82EA81844C0853729F498
:101250002F7EB22E2AE030E025C0F22FF97FBF2E7C
:101260008F36C1F018F4883579F0B4C0803719F0A2
:10127000883721F0AFC02F2F2061B22EB4FE0DC0F1
:101280008B2D8460B82E09C024FF0AC09F2F966062
:10129000B92E06C028E030E005C020E130E002C0F1
:1012A00020E132E0F801B7FE07C0608171818281E0
:1012B00093810C5F1F4F06C06081718180E090E0D8
:1012C0000E5F1F4FA4010E94420AA82EA818FB2DF2
:1012D000FF777F2E76FE0BC0372D3E7FA51450F48E
:1012E00074FE0AC072FC08C0372D3E7E05C0BA2CC1
:1012F000372D03C0BA2C01C0B52C34FF0DC0FE0140
:10130000EA0DF11D8081803311F4397E09C032FF6E
:1013100006C0B394B39404C0832F867809F0B394C5
:1013200033FD13C030FF06C05A2CB31418F4530C0D
:101330005B18B32CB31468F4B70180E290E03C87EB
:101340000E940A0AB3943C85F5CFB31410F43B18FD
:1013500001C0312C34FF12C0B70180E390E03C871C
:101360000E940A0A3C8532FF17C031FD03C088E79E
:1013700090E002C088E590E0B7010CC0832F86782A
:1013800059F031FF02C08BE201C080E237FD8DE2EF
:10139000B70190E00E940A0AA51438F4B70180E36F
:1013A00090E00E940A0A5A94F7CFAA94F401EA0D39
:1013B000F11D8081B70190E00E940A0AA110F5CFCB
:1013C000332009F451CEB70180E290E00E940A0A6E
:1013D0003A94F6CFF7018681978102C08FEF9FEF95
:1013E0002C96E2E10C94BC0AFC010590615070401F
:1013F0000110D8F7809590958E0F9F1F0895FC01DE
:101400006150704001900110D8F7809590958E0F33
:101410009F1F08950F931F93CF93DF93FB012381A9
:1014200021FD03C08FEF9FEF28C022FF16C0468129
:101430005781248135814217530744F4A081B1813B
:101440009D012F5F3F4F318320838C93268137810D
:101450002F5F3F4F3783268310C0EB01092F182FD2
:101460000084F185E02D0995892BE1F68E819F811D
:1014700001969F838E83812F902FDF91CF911F91B3
:101480000F910895FA01AA27283051F1203181F1F6
:10149000E8946F936E7F6E5F7F4F8F4F9F4FAF4F7C
:1014A000B1E03ED0B4E03CD0670F781F891F9A1F8F
:1014B000A11D680F791F8A1F911DA11D6A0F711D43
:1014C000811D911DA11D20D009F468943F912AE04F
:1014D000269F11243019305D3193DEF6CF01089537
:1014E000462F4770405D4193B3E00FD0C9F7F6CF68
:1014F000462F4F70405D4A3318F0495D31FD405230
:10150000419302D0A9F7EACFB4E0A69597958795C5
:1015100077956795BA95C9F70097610571050895A4
:101520009B01AC010A2E0694579547953795279550
:10153000BA95C9F7620F731F841F951FA01D0895E8
:101540002F923F924F925F926F927F928F929F92D3
:10155000AF92BF92CF92DF92EF92FF920F931F93C1
:10156000CF93DF93CDB7DEB7CA1BDB0B0FB6F89472
:10157000DEBF0FBECDBF09942A88398848885F84B2
:101580006E847D848C849B84AA84B984C884DF8023
:10159000EE80FD800C811B81AA81B981CE0FD11D07
:1015A0000FB6F894DEBF0FBECDBFED010895F894DD
:0215B000FFCF6B
:1015B200307B226779726F58223A2025642C2022D0
:1015C2006779726F59223A2025642C20226779723A
:0C15D2006F5A223A2025647D0D0A0000AB
:00000001FF
