:100000000C944B000C9468000C9468000C946800ED
:100010000C9468000C9468000C9468000C946800C0
:100020000C9468000C9468000C9468000C946800B0
:100030000C9468000C9468000C9468000C946800A0
:100040000C9468000C9468000C946C010C9468008B
:100050000C9468000C9468000C9468000C94680080
:100060000C9468000C946800084AD73B3BCE016EA4
:1000700084BCBFFDC12F3D6C74319ABD56833DDAFF
:100080003D00C77F11BED9E4BB4C3E916BAAAABE0E
:10009000000000803F0011241FBECFEFD4E0DEBF80
:1000A000CDBF11E0A0E0B1E0EAE9F7E102C00590C0
:1000B0000D92AC32B107D9F721E0ACE2B1E001C05A
:1000C0001D92A933B207E1F70E9401050C94CB0BF6
:1000D0000C940000663B71058105910511F486EBD7
:1000E00006C0653B71058105910519F485EB809388
:1000F000000108950F931F9380912E018823A1F191
:10010000E5E3F1E040E050E060E070E0CB01019118
:1001100010E020E030E0042E04C0000F111F221F69
:10012000331F0A94D2F7602B712B822B932B485FDD
:100130005F4F4032510559F78B019C010D541F4F01
:100140002F4F3F4F083611402105310518F00E940E
:100150006A0008C060932F017093300180933101D1
:100160009093320110922E011F910F910895CF921A
:10017000DF92EF92FF92CF93DF936A017B01E90157
:10018000082E000C990B97FF03C09195819591095A
:10019000811101C081E0682F880F770B880B990BC4
:1001A0000E949E079B01AC0160E070E080E291E458
:1001B0000E94F40623E333E343EB5EE30E948208EC
:1001C0006C837D838E839F8320E030E0A901C7018B
:1001D000B6010E947508181624F0F7FAF094F7F8A3
:1001E000F0942AE037ED43EA5CE3C701B6010E94D0
:1001F00082086B017C0120E030E040EA50E40E947C
:100200007508181634F4C12CD12C80EAE82E80E44D
:10021000F82E2AE939E949E15FE3C701B6010E94F6
:100220008208688379838A839B83DF91CF91FF90D3
:10023000EF90DF90CF900895CF92DF92EF92FF92F0
:100240006B017C0120E030E0A9010E94EF0687FFEE
:1002500007C080913401811103C00E9457021BC066
:1002600020E030E0A901C701B6010E947508181608
:100270003CF480913401813029F50E945F0214C062
:1002800020E030E0A901C701B6010E94EF0681110C
:1002900002C00E94800220E030E0A901C701B6013F
:1002A0000E94750818161CF4C701B60103C0C701E7
:1002B000B60190580E946D07862FFF90EF90DF9057
:1002C000CF90089520E030E0A901C701B6010E9457
:1002D000EF068111E9CFDDCF1F920F920FB60F927B
:1002E00011248F939F93EF93FF938091C60091E029
:1002F00090932E01E0913301EF5FE0933301E430FE
:1003000039F41092330190932E018093380104C088
:10031000F0E0EC5CFE4F8083FF91EF919F918F9115
:100320000F900FBE0F901F9018951092C5008CE093
:100330008093C400E0ECF0E080818260808388E9F3
:100340008093C10086E08093C200789408959091D4
:10035000C00095FFFCCF8093C60008958091C00037
:1003600087FFFCCF8091C60008956F927F928F9295
:100370009F92AF92BF92CF92DF92EF92FF920F9334
:100380001F93CF93DF93CDB7DEB7C058D1090FB617
:10039000F894DEBF0FBECDBFCE0101967C015E0199
:1003A00093E0A90EB11C4E01E4E08E0E911C00E01A
:1003B00010E067018DE0782E9AE0692E0E94AE0170
:1003C0008D3099F00F5F1F4F0E37110571F0F70157
:1003D00081937F01F601E00FF11F7082F5016192B8
:1003E0005F01F40111924F01E9CF8DE00E94A70156
:1003F0008AE00E94A701C601C058DF4F0FB6F894EB
:10040000DEBF0FBECDBFDF91CF911F910F91FF9047
:10041000EF90DF90CF90BF90AF909F908F907F90A4
:100420006F9008950F931F93CF938C01C0E0F80154
:10043000EC0FF11D8081882321F00E94A701CF5F7E
:10044000F6CFCF911F910F9108950F931F93CF93E4
:10045000DF93CDB7DEB7C058D1090FB6F894DEBF31
:100460000FBECDBF5F934F937F936F939F938F93F7
:1004700081E091E09F938F938E010F5F1F4F1F9339
:100480000F930E94F308C8010E9412020FB6F8945D
:10049000DEBF0FBECDBFC058DF4F0FB6F894DEBF32
:1004A0000FBECDBFDF91CF911F910F910895809125
:1004B0003401811103C081E080933401089580915B
:1004C0003401813011F41092340108958AB18066AC
:1004D0008AB917BC18BC84B5806A84BD84B58960AC
:1004E00084BD85B5816085BD0C945F029091340117
:1004F000911103C087BD18BC089517BC88BD08952D
:1005000017BC18BC0895CF92DF92EF92FF920F9321
:100510001F93FC01108E118E128E138E4083518317
:10052000628373830483158326833783C086D186D1
:10053000E286F386148A158A168A178A1486158627
:1005400016861786108A118A128A138A1F910F91B4
:10055000FF90EF90DF90CF900895FC01108E118EE8
:10056000128E138E148A158A168A178A1486158697
:1005700016861786108A118A128A138A08952F9276
:100580003F924F925F926F927F928F929F92AF9223
:10059000BF92CF92DF92EF92FF920F931F93CF9370
:1005A000DF93CDB7DEB72A970FB6F894DEBF0FBE44
:1005B000CDBF9A8389834F83588769877A87ED8275
:1005C000FE828B829C823A2C2B2C4F8C58A069A0E7
:1005D0007AA0BBA0ACA09DA08EA0A90198016F81BC
:1005E000788589859A850E948208E981FA81208D23
:1005F000318D428D538D0E9411067B018C012B2D74
:100600003A2D492D582D0E947508181624F4EB2C0C
:10061000FA2C092D182D9201A301B701C8010E94DF
:10062000EF0687FF02C072018301C701D801E9818B
:10063000FA81808F918FA28FB38F2485358546856F
:10064000578560817181828193810E9411062B01FF
:100650003C0120E030E0A9010E94EF0687FF03C0C3
:10066000412C512C3201E981FA812089318942895A
:10067000538964817581868197810E9411064B019F
:100680005C0120E030E0A9010E94EF0687FF03C073
:10069000812C912C5401A30192016F817885898569
:1006A0009A850E9482082B013C01A5019401B701A3
:1006B000C8010E9482089B01AC01C301B2010E94E3
:1006C00011062FA138A549A55AA50E9411067B0144
:1006D0008C012B813C81432D522D0E9475081816E8
:1006E00024F0EB82FC82302E212E96014D815E811A
:1006F0006B817C81832D922D0E94EF0687FD04C0C3
:10070000CB80DC803D822E82B6018D819E812A962F
:100710000FB6F894DEBF0FBECDBFDF91CF911F9112
:100720000F91FF90EF90DF90CF90BF90AF909F9090
:100730008F907F906F905F904F903F902F90089593
:100740002F923F924F925F926F927F928F929F92E1
:10075000AF92BF92CF92DF92EF92FF920F931F93CF
:10076000CF93DF93CDB7DEB72C970FB6F894DEBFEB
:100770000FBECDBF98878F832A013B01C901B80105
:10078000C986DA86EB86FC86382C292CA982BA82A7
:1007900029A12B83EAA1EC83FBA1FD832CA12E834D
:1007A000FDA0EEA0DFA0C8A4B9A4AAA49BA48CA419
:1007B000EF81F88520853185428553850E94820826
:1007C0009B01AC016DA57EA58FA598A90E9410067E
:1007D0009F938F937F936F938F929F92AF92BF92CD
:1007E000CF92DF92EF92FF928B809C80AD80BE8093
:1007F000C32CD22CE980FA8009851A852B853C858B
:10080000B301A2018F8198850E94BF022B013C0198
:100810000FB6F894DEBF0FBECDBF2B813C814D815A
:100820005E810E947508181624F44B805C806D80F0
:100830007E80232D322D49815A81B201C3010E944D
:10084000EF0687FF04C0432C522C69807A80B201E6
:10085000C3012C960FB6F894DEBF0FBECDBFDF915B
:10086000CF911F910F91FF90EF90DF90CF90BF90AD
:10087000AF909F908F907F906F905F904F903F9040
:100880002F9008958091BC0087FFFCCF089580E2EF
:100890008093B800ECEBF0E0808184608083089561
:1008A000CF92DF92EF92FF921F93CF93DF9300D00E
:1008B000CDB7DEB79CEBC92ED12C94EAF60190831C
:1008C0006A8389830E9442042BEBE22EF12C90E58F
:1008D000F701908314E8F60110830E944204898195
:1008E000F7018083F60110830E9442046A81F701B8
:1008F0006083F60110830E94420484E9F60180833C
:100900000F900F90DF91CF911F91FF90EF90DF90AC
:10091000CF900895CF92DF92EF92FF920F931F93A3
:10092000CF93DF931F92CDB7DEB79CEBC92ED12CAE
:1009300024EAE22EF601E08289830E9442040BEB56
:1009400010E090E5F801908334E8F32EF601F08290
:100950000E9442048981F8018083F601F0820E949E
:100960004204F601E0820E94420481E5F80180839E
:10097000F601F0820E94420484ECF60180830E941A
:100980004204F8018081F601F08289830E944204CA
:10099000F801908194E9F601908389810F90DF91AD
:1009A000CF911F910F91FF90EF90DF90CF9008951E
:1009B0001F93CF93DF9300D000D0CDB7DEB7182FB1
:1009C000062E000C770B880B990B0E949E079B014B
:1009D000AC01612F110F770B880B990B29833A8398
:1009E0004B835C830E949E0729813A814B815C8105
:1009F0000F900F900F900F90DF91CF911F910C945B
:100A00009006CF93DF93CDB7DEB7A4970FB6F894D7
:100A1000DEBF0FBECDBF4DECC42E4CECD42EED2C62
:100A20004CE3F42E00E010E020E83FE340E050E02B
:100A300060EC7FE3CE0101960E9483020E9447048E
:100A40000E9495010E94660260E08EE30E945004BD
:100A500068E08DE30E945004C12CD12C760150EA4D
:100A6000252E80910001863B09F0CAC08AE10E94D0
:100A70008A04182F8BE10E948A04612F70E08B0199
:100A8000182B89E10E948A04382E01348BE0180764
:100A900014F000581641B801110F880B990B0E94F1
:100AA0009E076D8F7E8F8F8F98A320E030E040E807
:100AB0005DE30E9482084B015C0160912F017091FF
:100AC000300180913101909132010E949E07A50171
:100AD00094010E9410062B013C01C701B6010E943F
:100AE000660769A37AA38BA39CA30091340110E04D
:100AF000C501B4010E946607DC01CB0149A15AA1DE
:100B0000B8010E9425029E012F5F3F4FB301A20151
:100B1000832D0E94B70020E030E0A901C301B2019B
:100B20000E94750818165CF420E030E040EA50E4BA
:100B3000C301B2010E94750818165CF03BC020E0AA
:100B400030E040EA50ECC301B2010E94EF0687FF9B
:100B500031C01F921F921F921F9291E49F932F9278
:100B60001F921F9281EC8F932F921F921F9293E4FA
:100B70009F938CE78F931F921F92812C912C2CE7CF
:100B8000A22E23ECB22EC12CD12C30E8E32E3FE371
:100B9000F32E0D8D1E8D2F8D38A1B301A201CE0134
:100BA00001960E94A0036B017C010FB6F894DEBF92
:100BB0000FBECDBF20E030E04CE753E4C701B601E3
:100BC0000E94750818168CF020E030E04CE753ECDA
:100BD000C701B6010E94EF0687FF0DC0C12CD12CC2
:100BE0008CE7E82E83ECF82E06C0C12CD12C9CE7B4
:100BF000E92E93E4F92EC701B6010E941C0105C03D
:100C0000CE0101960E94AD0280E00E9476020E9411
:100C10007A0089EF90E00197F1F700C0000021CF42
:100C20005058BB27AA270E9428060C943B080E9414
:100C30002D0838F00E94340820F039F49F3F19F451
:100C400026F40C9403080EF4E095E7FB0C94FD07E2
:100C5000E92F0E944C0858F3BA17620773078407FC
:100C6000950720F079F4A6F50C946E080EF4E09543
:100C70000B2EBA2FA02D0B01B90190010C01CA0156
:100C8000A0011124FF27591B99F0593F50F4503E01
:100C900068F11A16F040A22F232F342F4427585FF3
:100CA000F3CF469537952795A795F0405395C9F70B
:100CB0007EF41F16BA0B620B730B840BBAF09150C3
:100CC000A1F0FF0FBB1F661F771F881FC2F70EC062
:100CD000BA0F621F731F841F48F487957795679535
:100CE000B795F7959E3F08F0B0CF9395880F08F021
:100CF0009927EE0F9795879508950E942D0860F02B
:100D000080E891E009F49EEF0E94340828F040E862
:100D100051E071F45EEF0CC00C9403080C946E0863
:100D2000E92FE0780E944C0840F3092E052AB1F320
:100D3000261737074807590738F00E2E07F8E02521
:100D400069F0E025E0640AC0EF6307F8009407FA51
:100D5000DB01B9019D01DC01CA01AD01EF930E94E5
:100D60000B070E943B080E94C0065F91552339F093
:100D70002BED3FE049E450FD49EC0C941106089539
:100D8000DF93DD27B92FBF7740E85FE3161617061C
:100D900048075B0718F4D92F0E947A089F938F9316
:100DA0007F936F930E94EF08E8E6F0E00E94060848
:100DB0000E943B082F913F914F915F910E949508AF
:100DC000DD2351F09058A2EA2AED3FE049EC5FE3C1
:100DD000D0785D270E942806DF910C943B080E9482
:100DE000D90708F481E008950E9408070C943B0895
:100DF0000E94340858F00E942D0840F029F45F3F0B
:100E000029F00C94FD0751110C946F080C94030801
:100E10000E944C0868F39923B1F3552391F3951B75
:100E2000550BBB27AA2762177307840738F09F5F0B
:100E30005F4F220F331F441FAA1FA9F335D00E2E78
:100E40003AF0E0E832D091505040E695001CCAF7E5
:100E50002BD0FE2F29D0660F771F881FBB1F2617A8
:100E600037074807AB07B0E809F0BB0B802DBF017F
:100E7000FF2793585F4F3AF09E3F510578F00C944E
:100E8000FD070C946F085F3FE4F3983ED4F386951A
:100E900077956795B795F7959F5FC9F7880F911D6F
:100EA0009695879597F90895E1E0660F771F881F5B
:100EB000BB1F621773078407BA0720F0621B730B0E
:100EC000840BBA0BEE1F88F7E09508950E946D071A
:100ED0006894B1110C946F0808950E94540888F02A
:100EE0009F5798F0B92F9927B751B0F0E1F0660FEE
:100EF000771F881F991F1AF0BA95C9F714C0B1302F
:100F000091F00E946E08B1E008950C946E08672F6E
:100F1000782F8827B85F39F0B93FCCF3869577955D
:100F20006795B395D9F73EF4909580957095619546
:100F30007F4F8F4F9F4F0895E89409C097FB3EF471
:100F400090958095709561957F4F8F4F9F4F992316
:100F5000A9F0F92F96E9BB279395F6958795779594
:100F60006795B795F111F8CFFAF4BB0F11F460FF54
:100F70001BC06F5F7F4F8F4F9F4F16C0882311F0AC
:100F800096E911C0772321F09EE8872F762F05C0C0
:100F9000662371F096E8862F70E060E02AF09A955B
:100FA000660F771F881FDAF7880F9695879597F950
:100FB0000895990F0008550FAA0BE0E8FEEF1616EA
:100FC0001706E807F907C0F012161306E407F5073D
:100FD00098F0621B730B840B950B39F40A2661F0B1
:100FE000232B242B252B21F408950A2609F4A14054
:100FF000A6958FEF811D811D089597F99F6780E861
:1010000070E060E008959FEF80EC0895DF93CF9348
:101010001F930F93FF92EF92DF927B018C016894F4
:1010200006C0DA2EEF010E949508FE01E894A59112
:101030002591359145915591A6F3EF010E9428061F
:10104000FE019701A801DA9469F7DF90EF90FF9015
:101050000F911F91CF91DF91089500240A941616E5
:10106000170618060906089500240A941216130696
:10107000140605060895092E0394000C11F4882324
:1010800052F0BB0F40F4BF2B11F460FF04C06F5F40
:101090007F4F8F4F9F4F089557FD9058440F551F16
:1010A00059F05F3F71F04795880F97FB991F61F0EA
:1010B0009F3F79F087950895121613061406551F61
:1010C000F2CF4695F1DF08C0161617061806991FCD
:1010D000F1CF86957105610508940895E894BB27C2
:1010E00066277727CB0197F908950E94D90708F45E
:1010F0008FEF08959B01AC0160E070E080E89FE312
:101100000C94F4060E9495080C943B080E942D084C
:1011100038F00E94340820F0952311F00C94FD075C
:101120000C94030811240C946F080E944C0870F36F
:10113000959FC1F3950F50E0551F629FF001729F7C
:10114000BB27F00DB11D639FAA27F00DB11DAA1F8B
:10115000649F6627B00DA11D661F829F2227B00DD8
:10116000A11D621F739FB00DA11D621F839FA00D63
:10117000611D221F749F3327A00D611D231F849FB3
:10118000600D211D822F762F6A2F11249F5750400A
:101190009AF0F1F088234AF0EE0FFF1FBB1F661F85
:1011A000771F881F91505040A9F79E3F510580F04E
:1011B0000C94FD070C946F085F3FE4F3983ED4F362
:1011C000869577956795B795F795E7959F5FC1F7F2
:1011D000FE2B880F911D9695879597F908959B0191
:1011E000AC010C948208AEE0B0E0E9EFF8E00C94BA
:1011F000A20B0D891E8986E08C831A8309838FEFE9
:101200009FE79E838D83AE01475E5F4F6F89788D28
:10121000CE0101960E9416092F813885F801E20F50
:10122000F31F10822E96E4E00C94BE0BACE0B0E00D
:10123000ECE1F9E00C94940B7C016B018A01FC0158
:1012400017821682838181FFBDC1CE0101964C01B8
:10125000F7019381F60193FD859193FF81916F01D1
:10126000882309F4ABC1853239F493FD859193FF4E
:1012700081916F01853229F4B70190E00E94FE0A46
:10128000E7CF512C312C20E02032A0F48B3269F0D2
:1012900030F4803259F0833269F420612CC08D32F1
:1012A00039F0803339F4216026C02260246023C0E5
:1012B000286021C027FD27C030ED380F3A3078F480
:1012C00026FF06C0FAE05F9E300D1124532E13C096
:1012D0008AE0389E300D1124332E20620CC08E32ED
:1012E00021F426FD6BC1206406C08C3611F4206801
:1012F00002C0883641F4F60193FD859193FF8191F8
:101300006F018111C1CF982F9F7D9554933028F4A0
:101310000C5F1F4FFFE3F9830DC0833631F0833735
:1013200071F0833509F05BC022C0F80180818983A8
:101330000E5F1F4F44244394512C540115C03801B3
:10134000F2E06F0E711CF801A080B18026FF03C08F
:10135000652D70E002C06FEF7FEFC5012C870E9402
:10136000F30A2C0183012C852F77222E17C0380118
:10137000F2E06F0E711CF801A080B18026FF03C05F
:10138000652D70E002C06FEF7FEFC5012C870E94D2
:10139000E80A2C012C852068222E830123FC1BC027
:1013A000832D90E048165906B0F4B70180E290E032
:1013B0000E94FE0A3A94F4CFF50127FC859127FE9E
:1013C00081915F01B70190E00E94FE0A31103A94CA
:1013D000F1E04F1A51084114510471F7E5C0843609
:1013E00011F0893639F5F80127FF07C06081718156
:1013F000828193810C5F1F4F08C060817181072E2D
:10140000000C880B990B0E5F1F4F2F76722E97FFE3
:1014100009C090958095709561957F4F8F4F9F4F34
:101420002068722E2AE030E0A4010E94360BA82E1C
:10143000A81844C0853729F42F7EB22E2AE030E068
:1014400025C0F22FF97FBF2E8F36C1F018F48835F2
:1014500079F0B4C0803719F0883721F0AFC02F2F52
:101460002061B22EB4FE0DC08B2D8460B82E09C051
:1014700024FF0AC09F2F9660B92E06C028E030E0F6
:1014800005C020E130E002C020E132E0F801B7FE03
:1014900007C060817181828193810C5F1F4F06C0FC
:1014A0006081718180E090E00E5F1F4FA4010E9477
:1014B000360BA82EA818FB2DFF777F2E76FE0BC0CB
:1014C000372D3E7FA51450F474FE0AC072FC08C08C
:1014D000372D3E7E05C0BA2C372D03C0BA2C01C073
:1014E000B52C34FF0DC0FE01EA0DF11D8081803363
:1014F00011F4397E09C032FF06C0B394B39404C01E
:10150000832F867809F0B39433FD13C030FF06C0F3
:101510005A2CB31418F4530C5B18B32CB31468F49E
:10152000B70180E290E03C870E94FE0AB3943C85BC
:10153000F5CFB31410F43B1801C0312C34FF12C0A6
:10154000B70180E390E03C870E94FE0A3C8532FFB1
:1015500017C031FD03C088E790E002C088E590E045
:10156000B7010CC0832F867859F031FF02C08BE29F
:1015700001C080E237FD8DE2B70190E00E94FE0AD3
:10158000A51438F4B70180E390E00E94FE0A5A9453
:10159000F7CFAA94F401EA0DF11D8081B70190E024
:1015A0000E94FE0AA110F5CF332009F451CEB701F5
:1015B00080E290E00E94FE0A3A94F6CFF70186811D
:1015C000978102C08FEF9FEF2C96E2E10C94B00B55
:1015D000FC010590615070400110D8F780959095FE
:1015E0008E0F9F1F0895FC01615070400190011003
:1015F000D8F7809590958E0F9F1F08950F931F9396
:10160000CF93DF93FB01238121FD03C08FEF9FEF79
:1016100028C022FF16C04681578124813581421798
:10162000530744F4A081B1819D012F5F3F4F318367
:1016300020838C93268137812F5F3F4F378326830A
:1016400010C0EB01092F182F0084F185E02D0995BA
:10165000892BE1F68E819F8101969F838E83812F56
:10166000902FDF91CF911F910F910895FA01AA2732
:10167000283051F1203181F1E8946F936E7F6E5FD5
:101680007F4F8F4F9F4FAF4FB1E03ED0B4E03CD083
:10169000670F781F891F9A1FA11D680F791F8A1F66
:1016A000911DA11D6A0F711D811D911DA11D20D0CD
:1016B00009F468943F912AE0269F11243019305D87
:1016C0003193DEF6CF010895462F4770405D419378
:1016D000B3E00FD0C9F7F6CF462F4F70405D4A33C5
:1016E00018F0495D31FD4052419302D0A9F7EACF8D
:1016F000B4E0A6959795879577956795BA95C9F7BC
:1017000000976105710508959B01AC010A2E0694AE
:101710005795479537952795BA95C9F7620F731F67
:10172000841F951FA01D08952F923F924F925F92A4
:101730006F927F928F929F92AF92BF92CF92DF92E1
:10174000EF92FF920F931F93CF93DF93CDB7DEB746
:10175000CA1BDB0B0FB6F894DEBF0FBECDBF0994DA
:101760002A88398848885F846E847D848C849B8431
:10177000AA84B984C884DF80EE80FD800C811B813F
:10178000AA81B981CE0FD11D0FB6F894DEBF0FBE6E
:0A179000CDBFED010895F894FFCFDE
:10179A00B57B226779726F58223A2025642C202261
:1017AA006779726F59223A2025642C202267797250
:0C17BA006F5A223A2025647D0D0A0000C1
:00000001FF
